:020000040800F2
:100000000000022045330008D5380008E338000816
:10001000E9380008EF380008F53800080000000053
:10002000000000000000000000000000FB38000895
:1000300009390008000000001739000825390008B8
:100040009533000895330008953300089533000870
:100050009533000895330008953300089533000860
:100060009533000895330008953300089533000850
:100070009533000895330008953300089533000840
:100080009533000895330008953300089533000830
:100090009533000895330008953300089533000820
:1000A0009533000895330008953300089533000810
:1000B0009533000895330008953300089533000800
:1000C00095330008953300089533000895330008F0
:1000D00095330008953300089533000895330008E0
:1000E00095330008953300080000000095330008A0
:1000F00095330008953300089533000895330008C0
:1001000095330008953300089533000895330008AF
:10011000953300089533000895330008953300089F
:10012000953300089533000895330008953300088F
:10013000953300089533000895330008953300087F
:10014000953300089533000800000000000000000F
:10015000953300089533000895330008953300085F
:10016000953300089533000895330008953300084F
:10017000953300089533000895330008000000000F
:10018000953300089533000895330008953300082F
:10019000953300089533000895330008953300081F
:1001A000953300089533000895330008953300080F
:1001B00095330008953300089533000895330008FF
:1001C00095330008953300089533000895330008EF
:1001D00095330008953300089533000895330008DF
:1001E00095330008953300089533000895330008CF
:1001F00095330008953300089533000895330008BF
:1002000095330008953300089533000895330008AE
:10021000953300089533000895330008953300089E
:10022000953300089533000895330008000000005E
:10023000953300089533000895330008953300087E
:10024000953300089533000895330008953300086E
:10025000953300089533000895330008953300085E
:10026000953300089533000895330008953300084E
:10027000953300089533000895330008953300083E
:1002800095330008953300089533000800000000FE
:080290009533000895330008C6
:1002980010B5054C237833B9044B13B10448AFF3B8
:1002A80000800123237010BD2400002000000000FE
:1002B8007839000808B5034B1BB103490348AFF36D
:1002C800008008BD000000002800002078390008E0
:1002D80080B58AB000AF0346FB7100237B62FB79CF
:1002E800002B0FD1264BD3F8E030254A43F4007396
:1002F800C2F8E030224BD3F8E03003F40073FB601F
:10030800FB6815E0FB79012B0FD11D4BD3F8E030CA
:100318001B4A43F48073C2F8E030194BD3F8E0303D
:1003280003F48073BB60BB6802E06FF001037B627B
:10033800FB79144A52F823303B6101237B61012386
:10034800BB610323FB61FB790F4A52F8233007F1A5
:1003580010021146184600F0C5FAFB790A4A52F80D
:100368002300FB79074A52F823309BB20122194631
:1003780000F068FC7B6A18462837BD4680BD00BF80
:1003880000440258903900080000002080B584B06D
:1003980000AF0346FB710023FB60FB79084A52F863
:1003A8002300FB79074A52F823309BB200221946F2
:1003B80000F048FCFB6818461037BD4680BD00BFFA
:1003C800000000209039000880B500AF002000F040
:1003D80002F800BF80BD80B483B000AF0346FB7154
:1003E80000BF0C37BD465DF8047B704780B400AF92
:1003F800314BD3F88830304A43F47003C2F8883060
:100408002D4B1B692C4A43F0100313612B4B1B68BF
:100418002A4A43F001031360284B00221A61274B34
:100428001A682649264B13400B60244B00229A6118
:10043800224B0022DA61214B00221A621F4B002254
:100448009A621E4B0022DA621C4B00221A631B4B75
:1004580000225A63194B00229A63184B0022DA6370
:10046800164B00221A64154B00225A64134B1B6862
:10047800124A23F480231360104B00221A66114B92
:100488005B6A104A43F4804353620F4B1A680F4B60
:100498001340B3F1005F02D20D4B01221A600D4BDD
:1004A80043F2D2021A60044B4FF000629A6000BF18
:1004B800BD465DF8047B704700ED00E0004402583B
:1004C8007FEDF6EAC00000580010005C0000FFFF56
:1004D800088100510040005280B582B000AF03206F
:1004E80000F052F901F006FD0246154B9B691B0A04
:1004F80003F00F031349CB5C03F01F0322FA03F345
:100508007B600F4B9B6903F00F030E4AD35C03F02B
:100518001F037A6822FA03F30B4A13600B4A7B68BD
:1005280013600F2000F01CF80346002B01D00123B4
:1005380002E000F00DF8002318460837BD4680BDDC
:1005480000440258C0390008180000201400002098
:1005580080B400AF00BFBD465DF8047B7047000063
:1005680080B582B000AF7860154B1B78002B01D1A5
:10057800012321E0134B1A68114B1B7819464FF4DD
:100588007A73B3FBF1F3B2FBF3F3184600F021F9E9
:100598000346002B01D001230EE07B680F2B0AD8FD
:1005A800002279684FF0FF3000F0F9F8064A7B68BE
:1005B8001360002300E0012318460837BD4680BDBC
:1005C80020000020140000201C00002080B400AF90
:1005D800064B1B781A46064B1B681344044A1360E3
:1005E80000BFBD465DF8047B704700BF20000020B7
:1005F8004000002080B400AF034B1B681846BD467E
:100608005DF8047B704700BF4000002080B400AF55
:10061800034B1B681B0C1846BD465DF8047B7047EE
:100628000010005C80B485B000AF78607B6803F090
:100638000703FB600B4BDB68BB60BA684FF6FF0330
:100648001340BB60FB681A02BB681A43064B13438E
:10065800BB60044ABB68D36000BF1437BD465DF871
:10066800047B704700ED00E00000FA0580B400AF9D
:10067800044BDB681B0A03F007031846BD465DF808
:10068800047B704700ED00E080B483B000AF034600
:100698003960FB80B7F90630002B0ADB3B68DAB219
:1006A8000C49B7F906301201D2B20B4483F8002383
:1006B8000AE03B68DAB20849FB8803F00F03043B01
:1006C8001201D2B20B441A7600BF0C37BD465DF852
:1006D800047B704700E100E000ED00E080B489B0E1
:1006E80000AFF860B9607A60FB6803F00703FB614C
:1006F800FB69C3F10703042B28BF0423BB61FB6913
:100708000433062B02D9FB69033B00E000237B611D
:100718004FF0FF32BB6902FA03F3DA43BB681A40B1
:100728007B699A404FF0FF317B6901FA03F3D943A3
:100738007B680B40134318462437BD465DF8047B9D
:100748007047000080B582B000AF78607B68013BDD
:10075800B3F1807F01D301230FE00A4A7B68013B94
:1007680053600F214FF0FF30FFF78EFF054B00223B
:100778009A60044B07221A60002318460837BD46C2
:1007880080BD00BF10E000E080B582B000AF7860A7
:100798007868FFF747FF00BF0837BD4680BD80B5C2
:1007A80086B000AF0346B9607A60FB81FFF75EFF51
:1007B80078617A68B9687869FFF790FF0246B7F9F7
:1007C8000E3011461846FFF75FFF00BF1837BD46C9
:1007D80080BD80B582B000AF78607868FFF7B2FF5F
:1007E800034618460837BD4680BD000080B400AFF8
:1007F800BFF35F8F00BF074B5B6A064A23F4803361
:100808005362054B00225A6000BFBD465DF8047B69
:10081800704700BF00ED00E090ED00E080B483B0C9
:1008280000AF78600B4A7B6843F0010353600A4BC2
:100838005B6A094A43F480335362BFF34F8F00BFAA
:10084800BFF36F8F00BF00BF0C37BD465DF8047B58
:10085800704700BF90ED00E000ED00E080B483B089
:1008680000AF78607B685A781D4B9A607B681B786C
:10087800002B29D01A4A7B685B68D3607B681B7B96
:100888001A077B68DB7A1B061A437B689B7ADB04B2
:100898001A437B685B7B9B041A437B689B7B5B04E6
:1008A8001A437B68DB7B1B041A437B685B7A1B0259
:1008B8001A437B681B7A5B0013437A6812781146E7
:1008C800074A0B43136105E0054B0022DA60044B2D
:1008D80000221A6100BF0C37BD465DF8047B7047E3
:1008E80090ED00E080B489B000AF786039600023F3
:1008F800FB61894B7B6194E13B681A680121FB69C4
:1009080001FA03F313403B613B69002B00F0868139
:100918003B685B6803F00303012B05D03B685B6809
:1009280003F00303022B30D17B689B68BB61FB6932
:100938005B00032202FA03F3DB43BA691340BB618D
:100948003B68DA68FB695B0002FA03F3BA69134390
:10095800BB617B68BA699A607B685B68BB6101228E
:10096800FB6902FA03F3DB43BA691340BB613B68D6
:100978005B681B0903F00102FB6902FA03F3BA6919
:100988001343BB617B68BA695A603B685B6803F0D4
:100998000303032B17D07B68DB68BB61FB695B0033
:1009A800032202FA03F3DB43BA691340BB613B68D5
:1009B8009A68FB695B0002FA03F3BA691343BB61E7
:1009C8007B68BA69DA603B685B6803F00303022B53
:1009D80023D1FB69DA087B68083253F82230BB61FF
:1009E800FB6903F007039B000F2202FA03F3DB43C2
:1009F800BA691340BB613B681A69FB6903F00703D6
:100A08009B0002FA03F3BA691343BB61FB69DA0876
:100A18007B680832B96943F822107B681B68BB61A0
:100A2800FB695B00032202FA03F3DB43BA69134054
:100A3800BB613B685B6803F00302FB695B0002FA79
:100A480003F3BA691343BB617B68BA691A603B68F0
:100A58005B6803F44033002B00F0E0802F4BD3F8A1
:100A6800F4302E4A43F00203C2F8F4302B4BD3F88B
:100A7800F43003F00203FB60FB68294AFB699B081A
:100A8800023352F82330BB61FB6903F003039B0078
:100A98000F2202FA03F3DB43BA691340BB617B6898
:100AA800204A934252D07B681F4A934231D07B68D8
:100AB8001E4A93422BD07B681D4A934225D07B68FF
:100AC8001C4A93421FD07B681B4A934219D07B680B
:100AD8001A4A934213D07B68194A93420DD07B6817
:100AE800184A934207D07B68174A934201D10923D9
:100AF8002DE00A232BE0082329E0072327E006231B
:100B080025E0052323E0042321E003231FE002233B
:100B18001DE001231BE000BF80000058004402587C
:100B28000004005800000258000402580008025847
:100B3800000C0258001002580014025800180258FD
:100B4800001C025800200258002402580023FA69A9
:100B580002F0030292009340BA691343BB6138491B
:100B6800FB699B080233BA6941F823204FF0B04370
:100B78001B68BB613B69DB43BA691340BB613B68D7
:100B88005B6803F48013002B03D0BA693B691343F5
:100B9800BB614FF0B042BB6913604FF0B0435B6874
:100BA800BB613B69DB43BA691340BB613B685B6867
:100BB80003F40013002B03D0BA693B691343BB61EC
:100BC8004FF0B042BB6953607B695B68BB613B69AE
:100BD800DB43BA691340BB613B685B6803F40033CD
:100BE800002B03D0BA693B691343BB617B69BA69BF
:100BF8005A607B691B68BB613B69DB43BA69134078
:100C0800BB613B685B6803F48033002B03D0BA698F
:100C18003B691343BB617B69BA691A60FB6901339D
:100C2800FB613B681A68FB6922FA03F3002B7FF427
:100C380063AE00BF00BF2437BD465DF8047B704734
:100C48000004005880B483B000AF78600B467B8006
:100C580013467B707B78002B03D07A887B689A6177
:100C680003E07B881A047B689A6100BF0C37BD4695
:100C78005DF8047B7047000080B584B000AF7860F1
:100C88007B68002B01D10123BFE07B6893F8A1307A
:100C9800DBB2002B06D17B68002283F8A02078689D
:100CA80002F038FD7B68022283F8A1207B681B686C
:100CB8009A697B681B6822F070429A617B681B689E
:100CC80099697B685A687B689B681A437B68DB680C
:100CD8001A437B681B691A437B681B680A439A613D
:100CE8007B681B6899687B681A684A4B0B4093605D
:100CF8007B685B691B04FB607B681B6899687B6881
:100D08009A69FB681A437B681B680A439A607B6888
:100D18001B68D9687B681A683E4B0B40D3607B68B8
:100D2800DB691B04FB607B681B68D9687B681A6AEF
:100D3800FB681A437B681B680A43DA607B681B6898
:100D480019697B681A68334B0B4013617B685B6ACF
:100D58001B04FB607B681B6819697B689A6AFB68DF
:100D68001A437B681B680A431A617B681B685969C8
:100D78007B681A68274B0B4053617B68DB6A1B044E
:100D8800FB607B681B6859697B681A6BFB681A43B0
:100D98007B681B680A435A617B6893F835301B02ED
:100DA800FB607B6893F836301B04BB607B681B686C
:100DB800DA6A7B681B6802F07F42DA627B681B682C
:100DC800D96ABA68FB6813437A6892F834201A43E0
:100DD8007B681B680A43DA627B681B685A6B7B680E
:100DE8001B6842F006025A637B681B689A697B6835
:100DF8001B6842F001029A617B680022C3F8A420B4
:100E08007B68012283F8A120002318461037BD46CD
:100E180080BD00BF00F800F080B584B000AF7860F6
:100E28007B68002B01D1012349E07B681B68843370
:100E38001B687A681268843223F0010313607B68A8
:100E48001B6803F582731B687A68126802F5827260
:100E580023F0010313607B681B685A6A7B681B6870
:100E680042F002025A62FFF7C5FBF86006E0FFF79E
:100E7800C1FB0246FB68D31A642B07D87B681B6842
:100E88009B6C03F00403002BF1D000E000BF7B68EB
:100E98001B689A697B681B6822F001029A6178686E
:100EA80002F0F8FC7B680022C3F8A4207B680022CB
:100EB80083F8A1207B68002283F8A020002318462D
:100EC8001037BD4680BDB0B584B000AFF860B960DA
:100ED8007A60FB6893F8A030012B01D102232CE043
:100EE800FB68012283F8A020FB68022283F8A12076
:100EF800FA687B68342101FB03F3134403F13802D9
:100F0800BB6814461D460FCD0FC40FCD0FC40FCDBF
:100F18000FC42B6823607A68B968F86800F012F883
:100F2800FB681B6801225A62FB68012283F8A12032
:100F3800FB68002283F8A020002318461037BD461E
:100F4800B0BD000080B489B000AFF860B9607A60C5
:100F5800BB685A68FB681B68DB681B0CC3F30B0390
:100F680013441B04FB61FB681B681A467B68DB01A2
:100F7800134484335B68FA68126811467A68D201B0
:100F88000A44843203F470435360BB681A68FB68F0
:100F98001B68DB681B0CC3F30B0313445A1CFB6868
:100FA8001B6819467B68DB010B4484331946FB69CF
:100FB80013434B60BB68DA68FB681B68DB68C3F3E4
:100FC8000A0313441B04FB61FB681B681A467B6811
:100FD800DB01134484339B68FA68126811467A6807
:100FE800D2010A44843203F470439360BB689A6860
:100FF800FB681B68DB68C3F30A0313445A1CFB68CD
:101008001B6819467B68DB010B4484331946FB696E
:1010180013438B60FB681B681A467B68DB0113442B
:1010280084331B69FA68126811467A68D2010A4447
:10103800843223F007031361FB681B681A467B6838
:10104800DB01134484331A46BB681B691361BB6810
:1010580093F831301B02FB61BB6893F832301B04F4
:10106800BB61BB689B691B067B61FB681B681A46F2
:101078007B68DB01134484339B69FB681B681A4651
:101088007B68DB01134484331A4600239361BB68F1
:1010980093F830301A46FB691A43BB691A43FB6858
:1010A8001B6819467B68DB010B44843319467B694E
:1010B80013438B61FB681B681A467B68DB0113448A
:1010C80084335B69FA68126811467A68D2010A4467
:1010D800843223F0FF035361FB681B681A467B6860
:1010E800DB01134484331A46BB685B695361FB68B0
:1010F8001B681A467B68DB0113448433DA69FB6892
:101108001B6819467B68DB010B4484331946584B2E
:101118001340CB61BB68DA69BB681B6AF968096868
:1011280008467968C901014484311343CB61FB68DF
:101138001B681A467B68DB01134484339B6AFB688F
:101148001B681A467B68DB01134484331A46002364
:101158009362FB681B681A467B68DB01134484337F
:101168001A46BB685B6A9362BB681B69002B02D195
:101178000423FB611BE0BB681B69012B02D103231D
:10118800FB6114E0BB681B69042B0BD0BB681B69AF
:10119800022B07D0BB681B69032B03D0BB681B69F4
:1011A800072B02D10223FB6101E00123FB61FB68ED
:1011B8001B681A467B68DB0113448433DB6AFA68D0
:1011C800126811467A68D2010A44843203F0E02397
:1011D800D362BB689B6AFA6902FB03F31A04BB6813
:1011E8005968BB681B68CB1AF96901FB03F307331D
:1011F800F968096808467968C901014484311343CC
:10120800CB62FB681B681A467B68DB011344843396
:101218001A6BFB681B6819467B68DB010B44843337
:101228001946144B13400B63FB681B681A467B680E
:10123800DB01134484331A46BB68DB6A1363FB681B
:101248001B681A467B68DB01134484331B68FA6801
:10125800126811467A68D2010A44843243F00103C5
:10126800136000BF2437BD465DF8047B704700BF9C
:10127800F8F8FFFF00F8FFFF80B584B000AF786092
:10128800294BDB6803F00703062B0AD0264BDB68E3
:1012980003F03F037A689A4201D0012340E000231B
:1012A8003EE0214BDB6823F03F021F497B68134374
:1012B800CB60FFF79FF9F86009E0FFF79BF902465A
:1012C800FB68D31AB3F57A7F01D9012328E0164BBE
:1012D8005B6803F40053B3F5005FEED17B681E2B07
:1012E80008D07B682E2B05D07B681D2B02D07B682D
:1012F8002D2B14D1FFF77EF9F86009E0FFF77AF992
:101308000246FB68D31AB3F57A7F01D9012307E0B7
:10131800054BDB6803F48033B3F5803FEED100233F
:1013280018461037BD4680BD0048025880B58CB0BD
:1013380000AF78607B68002B02D1012300F01DBC50
:101348007B681B6803F00103002B00F08780994B32
:101358001B6903F03803FB62964B9B6ABB62FB6A0E
:10136800102B07D0FB6A182B10D1BB6A03F00303BC
:10137800022B0BD18F4B1B6803F40033002B6CD06E
:101388007B685B68002B68D10123F6E37B685B68A8
:10139800B3F5803F06D1874B1B68864A43F48033F8
:1013A80013602EE07B685B68002B0CD1814B1B68B7
:1013B800804A23F4803313607E4B1B687D4A23F4F4
:1013C800802313601DE07B685B68B3F5A02F0CD108
:1013D800784B1B68774A43F480231360754B1B686E
:1013E800744A43F4803313600BE0724B1B68714AF4
:1013F80023F4803313606F4B1B686E4A23F48023F9
:1014080013607B685B68002B13D0FFF7F3F87862F2
:1014180008E0FFF7EFF802467B6AD31A642B01D97C
:101428000323AAE3634B1B6803F40033002BF0D0BB
:1014380014E0FFF7DFF8786208E0FFF7DBF8024610
:101448007B6AD31A642B01D9032396E3594B1B6893
:1014580003F40033002BF0D100E000BF7B681B6869
:1014680003F00203002B00F0CB80524B1B6903F002
:1014780038033B624F4B9B6AFB613B6A002B07D0EA
:101488003B6A182B56D1FB6903F00303002B51D19B
:10149800484B1B6803F00403002B05D07B68DB680E
:1014A800002B01D1012368E3424B1B6823F019028A
:1014B8007B68DB683F4913430B60FFF79BF8786252
:1014C80008E0FFF797F802467B6AD31A022B01D986
:1014D800032352E3374B1B6803F00403002BF0D0BF
:1014E800FFF794F8034641F20302934217D87B684A
:1014F8001B69402B08D12F4B5B6823F47C332D4AA2
:1015080043F4003353607BE02A4B5B6823F47C325E
:101518007B681B691B03274913434B6070E0254B0D
:101528005B6823F0FE427B681B691B062149134355
:101538004B6065E07B68DB68002B48D01D4B1B685F
:1015480023F019027B68DB681A4913430B60FFF725
:1015580051F8786208E0FFF74DF802467B6AD31A23
:10156800022B01D9032308E3124B1B6803F0040381
:10157800002BF0D0FFF74AF8034641F203029342EA
:101588001AD87B681B69402B08D10A4B5B6823F487
:101598007C33084A43F40033536031E0054B5B6801
:1015A80023F47C327B681B691B03024913434B609D
:1015B80026E000BF004402589A4B5B6823F0FE42C5
:1015C8007B681B691B06974913434B6018E0954BD2
:1015D8001B68944A23F001031360FFF70BF8786245
:1015E80008E0FFF707F802467B6AD31A022B01D9F5
:1015F8000323C2E28B4B1B6803F00403002BF0D1DA
:101608007B681B6803F01003002B00F0A980854B52
:101618001B6903F03803BB61824B9B6A7B61BB6922
:10162800082B07D0BB69182B3AD17B6903F0030359
:10163800012B35D17B4B1B6803F48073002B05D03D
:101648007B68DB69802B01D0012396E2FEF7DEFF81
:10165800034641F20302934217D87B681B6A202B8A
:1016680008D1704B5B6823F0F8436E4A43F080431F
:10167800536075E06B4B5B6823F0F8427B681B6A2C
:101688009B06684913434B606AE0664BDB6823F0AE
:101698007C527B681B6A1B0662491343CB605FE080
:1016A8007B68DB69002B42D05E4B1B685D4A43F0C8
:1016B80080031360FEF79EFF786208E0FEF79AFF4A
:1016C80002467B6AD31A022B01D9032355E2554BF4
:1016D8001B6803F48073002BF0D0FEF797FF0346D6
:1016E80041F20302934217D87B681B6A202B08D16A
:1016F8004C4B5B6823F0F8434A4A43F080435360FD
:101708002EE0484B5B6823F0F8427B681B6A9B0617
:10171800444913434B6023E0424BDB6823F07C527F
:101728007B681B6A1B063F491343CB6018E03D4B9F
:101738001B683C4A23F080031360FEF75BFF786266
:1017480008E0FEF757FF02467B6AD31A022B01D93D
:10175800032312E2334B1B6803F48073002BF0D190
:101768007B681B6803F00803002B36D07B685B6935
:10177800002B19D02B4B5B6F2A4A43F001035367A8
:10178800FEF738FF786208E0FEF734FF02467B6A0E
:10179800D31A022B01D90323EFE1224B5B6F03F02D
:1017A8000203002BF0D018E01E4B5B6F1D4A23F09C
:1017B80001035367FEF71EFF786208E0FEF71AFF81
:1017C80002467B6AD31A022B01D90323D5E1154BB4
:1017D8005B6F03F00203002BF0D17B681B6803F0FA
:1017E8002003002B39D07B689B69002B1CD00D4B44
:1017F8001B680C4A43F480531360FEF7FBFE7862C3
:1018080008E0FEF7F7FE02467B6AD31A022B01D9DD
:101818000323B2E1034B1B6803F40053002BF0D001
:101828001BE000BF004402589B4B1B689A4A23F4F4
:1018380080531360FEF7DEFE786208E0FEF7DAFEFA
:1018480002467B6AD31A022B01D9032395E1924BF6
:101858001B6803F40053002BF0D17B681B6803F06E
:101868000403002B00F081808C4B1B688B4A43F4E7
:1018780080731360FEF7BEFE786208E0FEF7BAFEDA
:1018880002467B6AD31A642B01D9032375E1834B83
:101898001B6803F48073002BF0D07B689B68012BD6
:1018A80006D17D4B1B6F7C4A43F0010313672DE083
:1018B8007B689B68002B0CD1774B1B6F764A23F013
:1018C80001031367744B1B6F734A23F004031367F8
:1018D8001CE07B689B68052B0CD16F4B1B6F6E4A15
:1018E80043F0040313676C4B1B6F6B4A43F001030F
:1018F80013670BE0684B1B6F674A23F001031367FC
:10190800654B1B6F644A23F0040313677B689B686D
:10191800002B15D0FEF76EFE78620AE0FEF76AFE2D
:1019280002467B6AD31A41F28832934201D90323D3
:1019380023E1594B1B6F03F00203002BEED014E098
:10194800FEF758FE78620AE0FEF754FE02467B6A0C
:10195800D31A41F28832934201D903230DE14E4B49
:101968001B6F03F00203002BEED17B685B6A002B30
:1019780000F00281484B1B6903F03803182B00F074
:10198800BD807B685B6A022B40F09E80424B1B68DF
:10199800414A23F080731360FEF72CFE786208E05A
:1019A800FEF728FE02467B6AD31A022B01D90323CD
:1019B800E3E0394B1B6803F00073002BF0D1364B82
:1019C8009A6A374B13407A68916A7A68D26A120128
:1019D8000A43314913438B627B681B6B013BC3F39A
:1019E80008027B685B6B013B5B029BB21A437B6816
:1019F8009B6B013B1B0403F4FE031A437B68DB6B00
:101A0800013B1B0603F0FE43234913430B63224BA0
:101A1800DB6A214A23F00103D3621F4B5A6B214B27
:101A280013407A68926CD2001B4913434B631A4BDC
:101A3800DB6A23F00C027B681B6C17491343CB62EB
:101A4800154BDB6A23F002027B685B6C1249134377
:101A5800CB62114BDB6A104A43F48033D3620E4BDE
:101A6800DB6A0D4A43F40033D3620B4BDB6A0A4A44
:101A780043F48023D362084BDB6A074A43F001032F
:101A8800D362054B1B68044A43F080731360FEF76A
:101A9800B1FD786211E000BF0044025800480258C6
:101AA8000CFCFFFF0700FFFFFEF7A4FD02467B6A60
:101AB800D31A022B01D903235FE0324B1B6803F0D2
:101AC8000073002BF0D057E02E4B1B682D4A23F0F3
:101AD80080731360FEF78EFD786208E0FEF78AFDDA
:101AE80002467B6AD31A022B01D9032345E0254B12
:101AF8001B6803F00073002BF0D13DE0214B9B6A7B
:101B08003B61204B1B6BFB607B685B6A012B31D010
:101B18003B6903F003027B689B6A9A422AD13B69BE
:101B28001B0903F03F027B68DB6A9A4222D1FB68FB
:101B3800C3F308027B681B6B013B9A421AD1FB680E
:101B48005B0A03F07F027B685B6B013B9A4211D111
:101B5800FB681B0C03F07F027B689B6B013B9A427E
:101B680008D1FB681B0E03F07F027B68DB6B013B2F
:101B78009A4201D0012300E0002318463037BD46C1
:101B880080BD00BF0044025880B586B000AF7860C1
:101B980039607B68002B01D101239CE18A4B1B68CB
:101BA80003F00F033A689A4210D9874B1B6823F059
:101BB8000F0285493B6813430B60834B1B6803F096
:101BC8000F033A689A4201D0012384E17B681B68BD
:101BD80003F00403002B10D07B681A697B4B9B69C8
:101BE80003F070039A4208D9784B9B6923F070027E
:101BF8007B681B69754913438B617B681B6803F01D
:101C08000803002B10D07B685A69704BDB6903F01E
:101C180070039A4208D96D4BDB6923F070027B6828
:101C28005B696A491343CB617B681B6803F0100347
:101C3800002B10D07B689A69644BDB6903F4E0637E
:101C48009A4208D9614BDB6923F4E0627B689B699F
:101C58005E491343CB617B681B6803F02003002BAC
:101C680010D07B68DA69594B1B6A03F070039A42FB
:101C780008D9564B1B6A23F070027B68DB6953490D
:101C880013430B627B681B6803F00203002B10D020
:101C98007B68DA684D4B9B6903F00F039A4208D9B9
:101CA8004A4B9B6923F00F027B68DB684749134363
:101CB8008B617B681B6803F00103002B55D0434BF5
:101CC8009B6923F470627B689B68404913438B616E
:101CD8007B685B68022B07D13C4B1B6803F400331D
:101CE800002B21D10123F6E07B685B68032B07D129
:101CF800364B1B6803F00073002B15D10123EAE073
:101D08007B685B68012B07D1304B1B6803F4807339
:101D1800002B09D10123DEE02C4B1B6803F00403E0
:101D2800002B01D10123D6E0284B1B6923F00702C1
:101D38007B685B68254913430B61FEF75BFC7861A0
:101D48000AE0FEF757FC02467B69D31A41F2883253
:101D5800934201D90323BEE01C4B1B6903F03802F0
:101D68007B685B68DB009A42EBD17B681B6803F0F9
:101D78000203002B10D07B68DA68144B9B6903F0D0
:101D88000F039A4208D2114B9B6923F00F027B681C
:101D9800DB680E4913438B610B4B1B6803F00F0381
:101DA8003A689A4214D2084B1B6823F00F0206497E
:101DB8003B6813430B60044B1B6803F00F033A683E
:101DC8009A4205D0012386E00020005200440258C0
:101DD8007B681B6803F00403002B10D07B681A692A
:101DE8003F4B9B6903F070039A4208D23C4B9B69B6
:101DF80023F070027B681B69394913438B617B6848
:101E08001B6803F00803002B10D07B685A69344B19
:101E1800DB6903F070039A4208D2314BDB6923F087
:101E280070027B685B692E491343CB617B681B6832
:101E380003F01003002B10D07B689A69284BDB69EC
:101E480003F4E0639A4208D2254BDB6923F4E0628D
:101E58007B689B6922491343CB617B681B6803F04D
:101E68002003002B10D07B68DA691D4B1B6A03F036
:101E780070039A4208D21A4B1B6A23F070027B68DF
:101E8800DB69174913430B6200F034F80246144B20
:101E98009B691B0A03F00F031249CB5C03F01F0375
:101EA80022FA03F33B610E4B9B6903F00F030D4AC3
:101EB800D35C03F01F033A6922FA03F30A4A13605A
:101EC8000A4A3B6913600A4B1B681846FEF748FB31
:101ED8000346FB73FB7B18461837BD4680BD00BF21
:101EE80000440258C03900081800002014000020DF
:101EF8001C00002080B489B000AFB34B1B6903F00D
:101F08003803182B00F2558101A252F823F000BFC4
:101F18007D1F0008BB210008BB210008BB21000869
:101F2800BB210008BB210008BB210008BB21000819
:101F3800A31F0008BB210008BB210008BB21000823
:101F4800BB210008BB210008BB210008BB210008F9
:101F5800A91F0008BB210008BB210008BB210008FD
:101F6800BB210008BB210008BB210008BB210008D9
:101F7800AF1F0008944B1B6803F02003002B09D007
:101F8800914B1B68DB0803F00303904A22FA03F322
:101F9800BB6111E18D4BBB610EE18D4BBB610BE168
:101FA8008C4BBB6108E1884B9B6A03F003037B61A0
:101FB800854B9B6A1B0903F03F033B61824BDB6A3D
:101FC80003F00103FB60804B5B6BDB08C3F30C037E
:101FD800FA6802FB03F307EE903AF8EE677AC7ED6A
:101FE800027A3B69002B00F0E1807B69022B00F04C
:101FF80083807B69022B00F2A1807B69002B03D0D0
:102008007B69012B56D099E06F4B1B6803F02003C6
:10201800002B2DD06C4B1B68DB0803F003036B4AC5
:1020280022FA03F37B607B6807EE903AF8EE676A62
:102038003B6907EE903AF8EE677A86EEA77A624B2C
:102048001B6BC3F3080307EE903AF8EE676A97ED47
:10205800026ADFED615AC6EE257A76EEA77AF7EEC8
:10206800006A77EEA67A67EE277AC7ED077A87E0E7
:102078003B6907EE903AF8EE677ADFED586A86EE2C
:10208800A77A514B1B6BC3F3080307EE903AF8EE9F
:10209800676A97ED026ADFED505AC6EE257A76EE4A
:1020A800A77AF7EE006A77EEA67A67EE277AC7ED89
:1020B800077A65E03B6907EE903AF8EE677ADFED5C
:1020C800486A86EEA77A404B1B6BC3F3080307EEFA
:1020D800903AF8EE676A97ED026ADFED3F5AC6EE6E
:1020E800257A76EEA77AF7EE006A77EEA67A67EE9B
:1020F800277AC7ED077A43E03B6907EE903AF8EE96
:10210800677ADFED386A86EEA77A2F4B1B6BC3F32D
:10211800080307EE903AF8EE676A97ED026ADFED7A
:102128002E5AC6EE257A76EEA77AF7EE006A77EE93
:10213800A67A67EE277AC7ED077A21E03B6907EEB2
:10214800903AF8EE677ADFED266A86EEA77A1E4B9C
:102158001B6BC3F3080307EE903AF8EE676A97ED36
:10216800026ADFED1D5AC6EE257A76EEA77AF7EEFB
:10217800006A77EEA67A67EE277AC7ED077A00BF7E
:10218800114B1B6B5B0A03F07F0301333B603B6819
:1021980007EE903AB8EE677AD7ED076AC6EE877A07
:1021A800FCEEE77A17EE903ABB6105E00023BB61CD
:1021B80002E0074BBB6100BFBB6918462437BD4628
:1021C8005DF8047B704700BF004402580090D003BC
:1021D80000093D0040787D01000000460024744C51
:1021E8000024744A20BCBE4B80B586B000AF78602E
:1021F8000023FB750023BB757B681B6803F0006335
:10220800002B3FD07B685B6EB3F5401F2AD0B3F537
:10221800401F24D8B3F5001F18D0B3F5001F1ED8EF
:10222800002B03D0B3F5801F07D018E0A34BDB6A5F
:10223800A24A43F40033D36215E07B6804330221D9
:10224800184600F017FF0346FB750CE07B68243343
:102258000221184600F0C0FF0346FB7503E0012386
:10226800FB7500E000BFFB7D002B09D1934B1B6D74
:1022780023F440127B685B6E904913430B6501E0C1
:10228800FB7DBB757B681B6803F48073002B3DD016
:102298007B685B6D042B26D801A252F823F000BF9F
:1022A800BD220008CB220008DD220008F522000824
:1022B800F5220008814BDB6A804A43F40033D3627D
:1022C80015E07B6804330021184600F0D3FE03466E
:1022D800FB750CE07B6824330021184600F07CFF76
:1022E8000346FB7503E00123FB7500E000BFFB7D9F
:1022F800002B09D1714B1B6D23F007027B685B6DC6
:102308006E4913430B6501E0FB7DBB757B681B6859
:1023180003F40073002B42D07B689B6DB3F5807F7C
:102328002BD0B3F5807F25D8C02B28D0C02B21D83F
:10233800802B16D0802B1DD8002B02D0402B07D025
:1023480018E05E4BDB6A5D4A43F40033D36217E062
:102358007B6804330021184600F08CFE0346FB75A9
:102368000EE07B6824330021184600F035FF034651
:10237800FB7505E00123FB7502E000BF00E000BF2C
:10238800FB7D002B09D14D4B1B6D23F4E0727B685C
:102398009B6D4A4913430B6501E0FB7DBB757B6868
:1023A8001B6803F48063002B49D07B68D3F8A43002
:1023B800B3F5000F30D0B3F5000F2AD8B3F5C00F2E
:1023C8002CD0B3F5C00F24D8B3F5800F18D0B3F5CF
:1023D800800F1ED8002B03D0B3F5001F07D018E0DC
:1023E800364BDB6A354A43F40033D36217E07B6827
:1023F80004330021184600F03DFE0346FB750EE04D
:102408007B6824330021184600F0E6FE0346FB757E
:1024180005E00123FB7502E000BF00E000BFFB7D83
:10242800002B0AD1254B9B6D23F460027B68D3F8FF
:10243800A430224913438B6501E0FB7DBB757B68A3
:102448001B6803F40063002B4BD07B68D3F8A830DB
:10245800B3F1806F30D0B3F1806F2AD8B3F1407FE9
:102468002ED0B3F1407F24D8B3F1007F18D0B3F158
:10247800007F1ED8002B03D0B3F1807F07D018E06F
:102488000E4BDB6A0D4A43F40033D36219E07B68D4
:1024980004330021184600F0EDFD0346FB7510E0FB
:1024A8007B6824330021184600F096FE0346FB752E
:1024B80007E00123FB7504E000BF02E00044025876
:1024C80000BFFB7D002B0AD1994B9B6D23F0E06286
:1024D8007B68D3F8A830964913438B6501E0FB7DF0
:1024E800BB757B681B6803F00073002B32D07B68D8
:1024F8009B6C302B1CD0302B17D8202B0CD0202BCA
:1025080013D8002B16D0102B0FD1894BDB6A884AC1
:1025180043F40033D3620EE07B680433022118468B
:1025280000F0A8FD0346FB7505E00123FB7502E0FA
:1025380000BF00E000BFFB7D002B09D17C4BDB6CAA
:1025480023F030027B689B6C79491343CB6401E02C
:10255800FB7DBB757B681B6803F48053002B47D059
:102568007B68DB6DB3F5804F30D0B3F5804F2AD848
:10257800B3F5405F2CD0B3F5405F24D8B3F5005FC6
:1025880018D0B3F5005F1ED8002B03D0B3F5805FD9
:1025980007D018E0664BDB6A654A43F40033D36220
:1025A80017E07B6804330021184600F063FD0346FA
:1025B800FB750EE07B6824330021184600F00CFE02
:1025C8000346FB7505E00123FB7502E000BF00E050
:1025D80000BFFB7D002B09D1554B1B6D23F4E04256
:1025E8007B68DB6D524913430B6501E0FB7DBB75CE
:1025F8007B681B6803F40053002B49D07B681B6E73
:10260800B3F5A02F2ED0B3F5A02F28D8B3F5802F7F
:102618002AD0B3F5802F22D8B3F5403F26D0B3F5A2
:10262800403F1CD8B3F5003F10D0B3F5003F16D893
:10263800002B1DD0B3F5803F11D17B6804330121F5
:10264800184600F017FD0346FB7512E07B6824333B
:102658000121184600F0C0FD0346FB7509E001237F
:10266800FB7506E000BF04E000BF02E000BF00E029
:1026780000BFFB7D002B09D12D4B1B6D23F4E022FD
:102688007B681B6E2A4913430B6501E0FB7DBB7514
:102698007B681B6803F48043002B4DD07B68D3F81C
:1026A800AC30B3F1A04F2ED0B3F1A04F28D8B3F17E
:1026B800804F2AD0B3F1804F22D8B3F1405F26D0A3
:1026C800B3F1405F1CD8B3F1005F10D0B3F1005FE5
:1026D80016D8002B1DD0B3F1805F11D17B6804336D
:1026E8000121184600F0C6FC0346FB7512E07B6822
:1026F80024330121184600F06FFD0346FB7509E0FD
:102708000123FB7506E000BF04E000BF02E000BF44
:1027180000E000BFFB7D002B0CD1054B9B6D23F027
:10272800E0427B68D3F8AC30014913438B6503E082
:1027380000440258FB7DBB757B681B6803F40043AB
:10274800002B2FD07B68DB6EB3F1005F0ED0B3F1A6
:10275800005F14D8002B15D0B3F1805F0FD1AF4BB9
:10276800DB6AAE4A43F40033D3620CE07B6804337F
:102778000121184600F07EFC0346FB7503E00123A7
:10278800FB7500E000BFFB7D002B09D1A34B1B6D3F
:1027980023F040527B68DB6EA04913430B6501E0D0
:1027A800FB7DBB757B681B6803F08073002B32D000
:1027B8007B685B6C032B1BD801A252F823F000BF87
:1027C800FF270008D9270008E7270008FF27000887
:1027D800924BDB6A914A43F40033D3620CE07B6886
:1027E80004330221184600F045FC0346FB7503E05C
:1027F8000123FB7500E000BFFB7D002B09D1874B4F
:10280800DB6C23F003027B685B6C84491343CB6465
:1028180001E0FB7DBB757B681B6803F48003002B1C
:1028280000F086807E4B1B687D4A43F480731360FA
:10283800FDF7E0FE386109E0FDF7DCFE02463B6982
:10284800D31A642B02D90323FB7505E0744B1B686C
:1028580003F48073002BEFD0FB7D002B66D16F4B08
:102868001A6F7B68D3F8B030534003F44073002BE1
:1028780013D06A4B1B6F23F44073FB60674B1B6FCD
:10288800664A43F480331367644B1B6F634A23F42F
:1028980080331367614AFB6813677B68D3F8B030ED
:1028A800B3F5807F15D1FDF7A5FE38610BE0FDF784
:1028B800A1FE02463B69D31A41F28832934202D9FB
:1028C8000323FB7505E0554B1B6F03F00203002B38
:1028D800EDD0FB7D002B26D17B68D3F8B03003F414
:1028E8004073B3F5407F0DD14C4B1B6923F47C52E8
:1028F8007B68D3F8B03019094A4B0B40474913435A
:102908000B6105E0454B1B69444A23F47C53136172
:10291800424B1A6F7B68D3F8B030C3F30B033F49BF
:1029280013430B6704E0FB7DBB7501E0FB7DBB75C2
:102938007B681B6803F00103002B00F085807B682F
:102948009B6F282B66D801A252F823F0312A000881
:102958001D2A00081D2A00081D2A00081D2A000833
:102968001D2A00081D2A00081D2A0008F929000848
:102978001D2A00081D2A00081D2A00081D2A000813
:102988001D2A00081D2A00081D2A00080B2A000815
:102998001D2A00081D2A00081D2A00081D2A0008F3
:1029A8001D2A00081D2A00081D2A0008312A0008CF
:1029B8001D2A00081D2A00081D2A00081D2A0008D3
:1029C8001D2A00081D2A00081D2A0008312A0008AF
:1029D8001D2A00081D2A00081D2A00081D2A0008B3
:1029E8001D2A00081D2A00081D2A0008312A00088F
:1029F8007B6804330121184600F03CFB0346FB7555
:102A080013E07B6824330121184600F0E5FB0346F8
:102A1800FB750AE00123FB7507E000BF004402587C
:102A280000480258CFFFFF0000BFFB7D002B09D1F3
:102A3800964B5B6D23F038027B689B6F9349134379
:102A48004B6501E0FB7DBB757B681B6803F00203E7
:102A5800002B38D07B685B6F052B21D801A252F878
:102A680023F000BFAF2A0008852A0008972A00082B
:102A7800AF2A0008AF2A0008AF2A00087B68043391
:102A88000121184600F0F6FA0346FB750CE07B6856
:102A980024330121184600F09FFB0346FB7503E031
:102AA8000123FB7500E000BFFB7D002B09D1774BAC
:102AB8005B6D23F007027B685B6F744913434B65BA
:102AC80001E0FB7DBB757B681B6803F00403002BEA
:102AD8003AD07B68D3F89030052B21D801A252F860
:102AE80023F000BF2F2B0008052B0008172B000828
:102AF8002F2B00082F2B00082F2B00087B6804338E
:102B08000121184600F0B6FA0346FB750CE07B6815
:102B180024330121184600F05FFB0346FB7503E0F0
:102B28000123FB7500E000BFFB7D002B0AD1574B4A
:102B38009B6D23F007027B68D3F890305349134309
:102B48008B6501E0FB7DBB757B681B6803F0200388
:102B5800002B4BD07B68D3F88C30B3F1A04F2ED02C
:102B6800B3F1A04F28D8B3F1804F2AD0B3F1804FEA
:102B780022D8B3F1405F26D0B3F1405F1CD8B3F13F
:102B8800005F10D0B3F1005F16D8002B1DD0B3F151
:102B9800805F11D17B6804330021184600F06AFA7F
:102BA8000346FB7512E07B6824330221184600F0C7
:102BB80013FB0346FB7509E00123FB7506E000BF24
:102BC80004E000BF02E000BF00E000BFFB7D002B77
:102BD8000AD12E4B5B6D23F0E0427B68D3F88C3032
:102BE8002A4913434B6501E0FB7DBB757B681B6875
:102BF80003F04003002B4DD07B68D3F89830B3F531
:102C0800A05F2ED0B3F5A05F28D8B3F5805F2AD097
:102C1800B3F5805F22D8B3F5406F26D0B3F5406F87
:102C28001CD8B3F5006F10D0B3F5006F16D8002B81
:102C38001DD0B3F5806F11D17B680433002118468D
:102C480000F018FA0346FB7512E07B682433022172
:102C5800184600F0C1FA0346FB7509E00123FB752D
:102C680006E000BF04E000BF02E000BF00E000BFD4
:102C7800FB7D002B0CD1054B9B6D23F4E0527B6848
:102C8800D3F89830014913438B6503E00044025898
:102C9800FB7DBB757B681B6803F08003002B4BD062
:102CA8007B68D3F89C30B3F5204F2ED0B3F5204F76
:102CB80028D8B3F5004F2AD0B3F5004F22D8B3F582
:102CC800C04F26D0B3F5C04F1CD8B3F5804F10D0F5
:102CD800B3F5804F16D8002B1DD0B3F5005F11D186
:102CE8007B6804330021184600F0C4F90346FB75DD
:102CF80012E07B6824330221184600F06DFA03467F
:102D0800FB7509E00123FB7506E000BF04E000BF86
:102D180002E000BF00E000BFFB7D002B0AD19D4B05
:102D28009B6D23F460427B68D3F89C309949134328
:102D38008B6501E0FB7DBB757B681B6803F00803AE
:102D4800002B1AD07B68D3F88030B3F5805F0AD1A6
:102D58007B6824330221184600F03EFA0346002B14
:102D680001D00123BB758B4B5B6D23F440527B680C
:102D7800D3F88030874913434B657B681B6803F0A1
:102D88001003002B1AD07B68D3F89430B3F5807FFA
:102D98000AD17B6824330221184600F01DFA034645
:102DA800002B01D00123BB757A4B9B6D23F4407235
:102DB8007B68D3F89430774913438B657B681B682D
:102DC80003F40023002B34D07B68D3F8A030B3F58C
:102DD800003F1DD0B3F5003F17D8002B03D0B3F543
:102DE800803F09D011E07B6804330021184600F0C9
:102DF80041F90346FB750CE07B6824330221184631
:102E080000F0EAF90346FB7503E00123FB7500E0D7
:102E180000BFFB7D002B0AD15E4B9B6D23F4403233
:102E28007B68D3F8A0305B4913438B6501E0FB7DD9
:102E3800BB757B681B6803F48023002B33D07B6849
:102E4800D3F88430B3F5401F1CD0B3F5401F16D813
:102E5800B3F5801F03D0B3F5001F07D00FE04D4B2B
:102E6800DB6A4C4A43F40033D3620CE07B682433BA
:102E78000121184600F0B0F90346FB7503E0012371
:102E8800FB7500E000BFFB7D002B0AD1414B5B6D59
:102E980023F440127B68D3F884303E4913434B65D2
:102EA80001E0FB7DBB757B681B6803F48033002B56
:102EB80029D07B68DB6C002B03D0B3F5803F07D0AB
:102EC8000FE0344BDB6A334A43F40033D3620BE040
:102ED8007B6804330221184600F0CCF80346FB75E2
:102EE80002E00123FB7500BFFB7D002B09D1294BB4
:102EF800DB6C23F480327B68DB6C26491343CB649C
:102F080001E0FB7DBB757B681B6803F00053002B59
:102F18000AD07B6824330221184600F05DF9034685
:102F2800002B01D00123BB757B681B6803F40033B9
:102F3800002B33D07B68DB6FB3F5407F17D0B3F538
:102F4800407F11D8B3F5007F13D0B3F5007F0BD8BD
:102F5800002B10D0B3F5807F06D10E4BDB6A0D4AEB
:102F680043F40033D36207E00123FB7504E000BF9C
:102F780002E000BF00E000BFFB7D002B0CD1054B39
:102F88005B6D23F440727B68DB6F024913434B652A
:102F980004E000BF00440258FB7DBB757B681B68DA
:102FA80003F48013002B08D0314B1B6D23F0004233
:102FB8007B681B6F2E4913430B657B681B6803F006
:102FC8008053002B09D02A4B1B6923F480427B686D
:102FD800D3F8B430264913430B617B681B6803F4AC
:102FE8000013002B08D0224B1B6D23F080727B68E6
:102FF8009B6E1F4913430B657B681B6803F0804376
:10300800002B0DD01A4B1B69194A23F40043136196
:10301800174B1A697B68D3F8B830154913430B610D
:103028007B681B68002B08DA114BDB6C23F04052DD
:103038007B681B6D0E491343CB647B681B6803F4E4
:103048000003002B09D00A4B5B6D23F440027B6818
:10305800D3F88830064913434B65BB7D002B01D15B
:10306800002300E0012318461837BD4680BD00BF85
:103078000044025880B584B000AF786039600023FE
:10308800FB73534B9B6A03F00303032B01D101230A
:1030980099E04F4B1B684E4A23F080631360FDF79D
:1030A800A9FAB86008E0FDF7A5FA0246BB68D31A8A
:1030B800022B01D9032386E0454B1B6803F000630C
:1030C800002BF0D1424B9B6A23F47C327B681B684F
:1030D8001B033F4913438B627B685B68013BC3F367
:1030E80008027B689B68013B5B029BB21A437B68C2
:1030F800DB68013B1B0403F4FE031A437B681B696E
:10310800013B1B0603F0FE43314913438B63304BED
:10311800DB6A23F0C0027B685B692D491343CB62ED
:103128002B4BDB6A23F020027B689B6928491343F9
:10313800CB62274BDB6A264A23F01003D362244B69
:10314800DA6B244B13407A68D269D20020491343C2
:10315800CB631F4BDB6A1E4A43F01003D3623B6804
:10316800002B06D11A4BDB6A194A43F40023D362B9
:103178000FE03B68012B06D1154BDB6A144A43F478
:103188008013D36205E0124BDB6A114A43F4001343
:10319800D3620F4B1B680E4A43F080631360FDF740
:1031A80029FAB86008E0FDF725FA0246BB68D31A89
:1031B800022B01D9032306E0054B1B6803F00063CB
:1031C800002BF0D0FB7B18461037BD4680BD00BFF2
:1031D800004402580700FFFF80B584B000AF786054
:1031E80039600023FB73534B9B6A03F00303032BE3
:1031F80001D1012399E04F4B1B684E4A23F08053BD
:103208001360FDF7F7F9B86008E0FDF7F3F9024637
:10321800BB68D31A022B01D9032386E0454B1B68F0
:1032280003F00053002BF0D1424B9B6A23F07C72D1
:103238007B681B681B053F4913438B627B685B688F
:10324800013BC3F308027B689B68013B5B029BB2AE
:103258001A437B68DB68013B1B0403F4FE031A4333
:103268007B681B69013B1B0603F0FE43314913438E
:103278000B64304BDB6A23F440627B685B692D4941
:103288001343CB622B4BDB6A23F400727B689B6988
:1032980028491343CB62274BDB6A264A23F4807301
:1032A800D362244B5A6C244B13407A68D269D200FB
:1032B800204913434B641F4BDB6A1E4A43F4807357
:1032C800D3623B68002B06D11A4BDB6A194A43F4D8
:1032D8008003D3620FE03B68012B06D1154BDB6AF4
:1032E800144A43F40003D36205E0124BDB6A114A27
:1032F80043F08073D3620F4B1B680E4A43F0805330
:103308001360FDF777F9B86008E0FDF773F9024636
:10331800BB68D31A022B01D9032306E0054B1B68AF
:1033280003F00053002BF0D0FB7B18461037BD4646
:1033380080BD00BF004402580700FFFFDFF834D00B
:10334800002103E00C4B5B58435004310B480C4BF5
:1033580042189A42F6D30B4A02E0002342F8043B93
:10336800094B9A42F9D3FDF741F800F0DDFA00F075
:103378000EF8704700000220D8350408000000202D
:103388002400002024000020EC000020FEE780B587
:1033980000AF00F099F900F029F9FDF79DF800F069
:1033A80007F80120FCF794FF00F07EF8FEE7000024
:1033B80080B59EB000AF002387F877300420FDF772
:1033C8005BFF00237B60364BDB6A354A23F0010341
:1033D800D362334BDB6A03F001037B60314B9B699B
:1033E800304A43F4404393612E4B9B6903F44043B6
:1033F8007B607B6800BF2B4B9B6903F40053B3F5DC
:10340800005FF8D10123BB604FF48033FB600023D9
:103418007B6100237B620223FB6202233B6305235B
:103428007B63A023BB6300233B650223FB6302236A
:103438007B6404233B640023FB640823BB6407F11B
:1034480008031846FDF772FF034687F8773097F8A8
:103458007730002B00D0FEE73F237B650323BB6555
:103468000023FB6508233B6640237B664023BB663D
:103478004FF48063FB6640233B6707F15403042144
:103488001846FEF781FB034687F8773097F87730C0
:10349800002B00D0FEE700BF7837BD4680BD00BFD7
:1034A800000400580048025880B5BCB000AF4FF087
:1034B80000537B630523BB65A023FB6500237B6763
:1034C80002233B6602237B665323BB6600233B67CC
:1034D8004FF40063FB6607F134031846FEF784FED9
:1034E8003C4B3D4A1A603B48FDF796FC394B00229D
:1034F8005A60384B00229A60364B0022DA60354B0E
:1035080000221A61334B28225A61324B09229A61F0
:10351800304B3522DA612F4B0B221A622D4B40F2C9
:103528001B129A622B4B40F215225A62294B40F229
:103538001D121A63274B40F23522DA62254B00220E
:1035480083F83420234B002283F83520214B0022B6
:1035580083F836201F4B204A1A6000233B604FF443
:10356800F0737B600023BB604FF48873FB60022319
:103578003B611A4B7B62FF237B610023BB61002305
:1035880087F83030002387F83130002387F832304D
:103598004FF48063FB6105233B624FF4F073BB6219
:1035A8004FF48873FB620B48FDF766FB0346002B5C
:1035B80001D000F015F83B46012219460548FDF7F1
:1035C80082FC0346002B01D000F00AF800BFF03758
:1035D800BD4680BD4400002000100050D0390008CE
:1035E80080B500AF0120FCF7D1FEFEE780B485B0BE
:1035F80000AF344B5B6903F40033002B1BD1BFF3DE
:103608004F8F00BFBFF36F8F00BF2E4B0022C3F850
:103618005022BFF34F8F00BFBFF36F8F00BF294BFE
:103628005B69284A43F400335361BFF34F8F00BFEF
:10363800BFF36F8F00E000BF224B5B6903F4803358
:10364800002B38D11F4B0022C3F88420BFF34F8FC3
:1036580000BF1C4BD3F88030FB60FB685B0BC3F3E7
:103668000E03BB60FB68DB08C3F309037B60BB6820
:103678005A0143F6E07313407A68920711491343DD
:10368800C1F860327B685A1E7A60002BEFD1BB68A4
:103698005A1EBA60002BE5D1BFF34F8F00BF094B0C
:1036A8005B69084A43F480335361BFF34F8F00BF0F
:1036B800BFF36F8F00E000BF00BF1437BD465DF851
:1036C800047B704700ED00E080B584B000AFFDF7E3
:1036D8008DF801233B7000237B601F233B7200237E
:1036E800FB720023FB730023BB7301237B7300234E
:1036F8007B700023BB7287237B7201233B733B469D
:103708001846FDF7ABF80420FDF788F800BF10371E
:10371800BD4680BD80B58EB000AF7860574BD3F8FA
:10372800E430564A43F00803C2F8E430534BD3F868
:10373800E43003F008033B623B6A504BD3F8E030B7
:103748004E4A43F48073C2F8E0304C4BD3F8E03073
:1037580003F48073FB61FB69484BD3F8E030474AB8
:1037680043F40073C2F8E030444BD3F8E03003F47C
:103778000073BB61BB69414BD3F8E0303F4A43F467
:103788008063C2F8E0303D4BD3F8E03003F4806347
:103798007B617B69394BD3F8E030384A43F08003CA
:1037A800C2F8E030354BD3F8E03003F080033B61DA
:1037B8003B69324BD3F8E030304A43F00803C2F893
:1037C800E0302E4BD3F8E03003F00803FB60FB68D1
:1037D8004DF203237B620223BB620023FB620223B8
:1037E8003B630E237B6307F1240319462448FDF746
:1037F80079F84FF6FB737B620223BB620023FB62FE
:1038080002233B630E237B6307F1240319461D48FB
:10381800FDF768F87C237B620223BB620023FB620E
:1038280002233B630E237B6307F1240319461648E2
:10383800FDF758F840F202237B620223BB620023A3
:10384800FB6202233B630E237B6307F124031946C3
:103858000E48FDF747F880237B620123BB6207F11E
:10386800240319460A48FDF73DF80122802108483B
:10387800FDF7E8F900BF3837BD4680BD004402585F
:10388800002002580024025800280258001C025840
:10389800000C025880B483B000AF78600A4BD3F8AC
:1038A8008C30094A43F00803C2F88C30064BD3F831
:1038B8008C30054A23F00803C2F88C3000BF0C375F
:1038C800BD465DF8047B70470044025880B400AFE1
:1038D80000BFBD465DF8047B704780B400AFFEE7CB
:1038E80080B400AFFEE780B400AFFEE780B400AF5D
:1038F800FEE780B400AF00BFBD465DF8047B7047AB
:1039080080B400AF00BFBD465DF8047B704780B44B
:1039180000AF00BFBD465DF8047B704780B500AFBF
:10392800FCF754FE00BF80BD70B50D4D0D4C641BF7
:10393800A4100026A64209D10B4D0C4C00F018F833
:10394800641BA4100026A64205D170BD55F8043B9F
:1039580098470136EEE755F8043B98470136F2E7F9
:10396800D0350408D0350408D0350408D435040807
:10397800F8B500BFF8BC08BC9E467047F8B500BF54
:08398800F8BC08BC9E46704724
:1039900004000000002000000020000028000000BB
:1039A00053544D333248373435492D444953434FEE
:1039B000000000004D423133383142000D007016D6
:1039C00000000000010203040102030406070809C5
:1039D000537A537A53825382538253825382538A47
:1039E000538253825382538253825382538233824F
:1039F000338233825382538253825382538253825F
:103A000053825382538A53825382738A738A738A8E
:103A1000538A738A738A538A748A748A748A738AFB
:103A2000738A548A748A748A748A738A738A748AC9
:103A3000738A738A938A938A938A938A738A738A1E
:103A4000748A748A748A738A948A948A948A748A27
:103A50007492949295929592B58AF692B48AD069AE
:103A60002D5191727BDEDFFFFFFFFFFFFFFFFFFFA6
:103A7000FFFFFFFFFFFFFFFFFFFFFFFFFFFFFFFF56
:103A8000FFFFFFFFFFFFFFFFFFFFFFFFFFFFFFFF46
:103A9000FFFFFFFFFFFFFFFFFFFFFFFFFFFFFFFF36
:103AA000FFFFFFFFFFFFFFFFFFFFFFFFFFFFFFFF26
:103AB000FFFFFFFFFFFFFFFFFFFFFFFFFFFFFFFF16
:103AC000FFFFFFFFFFFFFFFFFFFFFFFFFFFFFFFF06
:103AD000FFFFFFFFFFFFFFFFFFFFFFFFFFFFFFFFF6
:103AE000FFFFFFFFFFFFFFFFFFFFFFFFFFFFFFFFE6
:103AF000FFFFFFFFFFFFFFFFFFFFFFFFFFFFFFFFD6
:103B0000FFFFFFFFFFFFFFFFFFFFFFFFFFFFFFFFC5
:103B1000FFFFFFFFFFFFFFFFFFFFFFFFFFFFFFFFB5
:103B2000FFFFFFFFFFFFFFFFFFFFFFFFFFFFFFFFA5
:103B3000FFFFFFFFFFFFFFFFFFFFFFFFFEFFFEFF97
:103B4000FEFFBDFF19F714DE2CA40663C44A687398
:103B500011C5B0CC27824569EB8AFBE6FFFFFFFF6A
:103B6000FFFFFFFFFFFFFFFFFFFFFEFF9BFF37FF92
:103B700016FFF5FED4F6B4F693F672EED4EE78FFA7
:103B800078FF58FF58FFF7FED5F6B4EE93EE93EEAC
:103B900093EE93EE73EE32E612E6F2DDF0D50FDE31
:103BA0004FDED2EED2F671E6EECD0FDE2FDE8DBD0A
:103BB0004794A583A58B69A4EBB42EBD6FCDD1DD51
:103BC000D5F637FF38FF19F7BEFFFFFFFFFFFFFFF6
:103BD000FFFFFFFFFFFFFFFFFFFFFFFFFFFFFFFFF5
:103BE0009EF77DF77AF792DE2FCE6ECE4ECE0CC6C4
:103BF00069ADA394C494A9B5AABDCAC54CD66CDE60
:103C00000CD64DBD12CD55DDD6E513EE75EE19F788
:103C1000B8EEB8EE5AF7DEFFFFFFBEFFB8E6F0AC35
:103C2000E349001900112121C020C018E118C01873
:103C3000C010C010C110C118A22061206018C018A7
:103C40002231A441675AE872087B47834BA46CACCD
:103C5000CA9B077B0783AA936A8B8B938FB452D539
:103C600093DDB4EDF5F516F636F637F637F637EEA2
:103C700036EE96EE37F79BFFBCFFBBFFDBFFDBFFAB
:103C8000BBFFDCFFFDFFDCFFBCFFBBFFB9FF76FF26
:103C900056FF55FF55FF36FF36FF78FF98FF97FF19
:103CA000B9FFDAFFFBFFFBFFFAFF99FF36FFF5F6DE
:103CB000B4F6B4F6D4FE16FF76FF97FF99FFDBFF4C
:103CC000FBFFFBFFFBFFFBFFFBFFFDFFFDFFFCFF1F
:103CD000FBFFFCFFFDFFFDFFFDFFFDFFFEFFFDFF06
:103CE000FDFFDEFFDEFFBDFFDCFFDBFFDCFFFDFFD6
:103CF000DCFF57EF50C68DADEBACCAA4CB9C8B9CC0
:103D00004A9C6AA4CCBC0FD50FDDAEDC6FE44FE457
:103D10004EDC0EDC0FDCEFDB0FDC0FE42FEC2FECC6
:103D20004FEC30E410E410E40FE410EC10EC30EC55
:103D3000F0EB10EC51EC51F471F472F492F4B2FC2B
:103D4000B2FC92F492F493F493F493F493ECB3F4FE
:103D5000B3F4D4F4F4ECF4ECF5EC16F517F5D7EC79
:103D6000B8DC98D479CC3BC41BC41CBC1DBCFDBBC7
:103D70001DC41EC41EC4FDBBFDBBFDC3FDC3FEC3ED
:103D8000FEC3DDC3FCC3FCC3FCBBFCBBDBBBBBB3E2
:103D9000337A337A3382338233823382528252824D
:103DA000337A527A527A527A327A327A337A337A50
:103DB000337A537A538253825382537A53823382B3
:103DC000338253825382538253825382538253826B
:103DD000538A538253825382538A538A5382538A1B
:103DE000538A5382538A538A538253825382738AEB
:103DF000738A738A748A748A738A748A738A738AD8
:103E0000738A738A738A738A738A738A748A738AC9
:103E100073927492B592B58A53821372D58A9AC4FA
:103E20005CD5FCE53EF7DFFFFFFFFFFFFFFFFFFF75
:103E3000FFFFFFFFFFFFFFFFFFFFFFFFFFFFFFFF92
:103E4000FFFFFFFFFFFFFFFFFFFFFFFFFFFFFFFF82
:103E5000FFFFFFFFFFFFFFFFFFFFFFFFFFFFFFFF72
:103E6000FFFFFFFFFFFFFFFFFFFFFFFFFFFFFFFF62
:103E7000FFFFFFFFFFFFFFFFFFFFFFFFFFFFFFFF52
:103E8000FFFFFFFFFFFFFFFFFFFFFFFFFFFFFFFF42
:103E9000FFFFFFFFFFFFFFFFFFFFFFFFFFFFFFFF32
:103EA000FFFFFFFFFFFFFFFFFFFFFFFFFFFFFFFF22
:103EB000FFFFFFFFFFFFFFFFFFFFFFFFFFFFFFFF12
:103EC000FFFFFFFFFFFFFFFFFFFFFFFFFFFFFFFF02
:103ED000FFFFFFFFFFFFFFFFFFFFFFFFFFFFFFFFF2
:103EE000FFFFFFFFFFFFFFFFFFFFFFFFFFFFFFFFE2
:103EF000FFFFFFFFFFFFFFFFFFFFFFFFFDFFDCFFF7
:103F0000DBFFBBFFBDFFB8E6EB8B434AC131244A60
:103F1000EDA3EEB3CA9A54CDFBEEDEFFFFFFFFFF29
:103F2000FFFFFFFFFFFFFFFFFFFFBDFFD6F674EEB1
:103F300053EE32EEF1E5D1E5AFD54EC56FC512DED9
:103F4000D6F617F7F6F6F6F6B5F652E611DE11E6F6
:103F5000F1DDF1DDF2DDD1DDD0DDAFD58EC5CED521
:103F600030E6B2EEEFD54CBD0AB58DC5ADC5EAACB5
:103F7000689C0794C78BE78B2894ECB411DE73EE32
:103F800074EEB5F617FFBCFFDFFFFFFFFFFFFFFF7B
:103F9000FFFFFFFFFFFFFFFFFFFFBEFF7DF7DAE63A
:103FA00075C574C596DE72D62FCE0EC6ABBD4AADB2
:103FB000E79C25A566ADEABD69B569B5AAC5A6A405
:103FC00086A44CBDF1BCD2BC13CDB2DDD2DDB3D5DD
:103FD000D0B432BDF9EEBDFFFFFFDFFF9CF7D5C5C2
:103FE000044AA010A0080121E120C118A010C110AE
:103FF000E118E1180119E218A220A228C228E12044
:104000000229222942314231A341856A8993EAA3D8
:10401000A99B0883077B498BAB93AB9BECA32DAC8F
:104020006EBCD0CC12D532DD53DD94E5D5ED37F63C
:1040300015E614DE74E6D7F6F8FEF8FE38FF38FF12
:1040400039FF7AFF7AFF39FF39FF18FFB5F693EE93
:1040500093EEB3F6F4F615FF36FF37FF17FF16FFA2
:10406000F6FE16FF37FF57F777FF98FFB9FFB9FF46
:1040700056FFF4FED4F6D4FE14FF35FF57FF98FF29
:10408000B8FFB8FFB8FFB8FFD8FF9AFF9BFF9AFFB1
:104090009AFF9AFF9BFF9AFF9AFF9BFF9BFF9BFF54
:1040A0007AFF3AFF1AFF1AFF18FF58FF9BFF7AFFAB
:1040B00017EFF0BDCA948994AAA4AA9C8994299464
:1040C000E88B2A9C0DC5CECC8DCC4ED44EDC4FE473
:1040D0004FDC4FE450E451E451E451EC51EC50EC2E
:1040E00050EC51EC52EC51EC50EC30EC10EC30EC6C
:1040F000F0F3F0F331EC52EC51EC51EC72EC72EC69
:1041000071EC51EC51EC32EC31E431E432E451E445
:1041100051DC31DC51DC51D432CC14CCF4CBB4C3FF
:10412000B6C3B7BB99B39AB39BB39BB39CB39CB3D1
:104130009CB39CB37CB39BAB9BAB9CB37CB37CBB71
:104140007CB37CB37BB39BB37BB39BB39BAB7AABAE
:10415000137A337A327A327A127A337A3282327A34
:10416000327A327A327A327A327A327A337A537ACD
:10417000537A527A327A527A527A53825382338203
:10418000337A5382538253823382337A537A5382FF
:10419000538A5382537A5382538A5382538253826F
:1041A0005382338233825382538A538A5382538A8F
:1041B000538A738A7382738A738A538A738A738A5F
:1041C000538A738A738A538A738A738A738A738A47
:1041D000748A548A948A948A127AB069138B7DE621
:1041E0009FFF9FFF5DF7FCE6DCE6DCDEFCE63DEFD3
:1041F000BFFFFFFFFFFFFFFFFFFFFFFFFFFFFFFF0F
:10420000FFFFFFFFFFFFFFFFFFFFFFFFFFFFFFFFBE
:10421000FFFFFFFFFFFFFFFFFFFFFFFFFFFFFFFFAE
:10422000FFFFFFFFFFFFFFFFFFFFFFFFFFFFFFFF9E
:10423000FFFFFFFFFFFFFFFFFFFFFFFFFFFFFFFF8E
:10424000FFFFFFFFFFFFFFFFFFFFFFFFFFFFFFFF7E
:10425000FFFFFFFFFFFFFFFFFFFFFFFFFFFFFFFF6E
:10426000FFFFFFFFFFFFFFFFFFFFFFFFFFFFFFFF5E
:10427000FFFFFFFFFFFFFFFFFFFFFFFFFFFFFFFF4E
:10428000FFFFFFFFFFFFFFFFFFFFFFFFFFFFFFFF3E
:10429000FFFFFFFFFFFFFFFFFFFFFFFFFFFFFFFF2E
:1042A000DFFFDFFFFFFFFFFFFFFFDFFFFFFFFFFF7E
:1042B000FFFFFFFFFFFFFFFFFFFFFFFFDEFFBBFF73
:1042C000BAFFDBFFDDFF37C68852E3390342034202
:1042D0006331685A94CD7CF7DFFFFFFFFFFFFFFFDC
:1042E000FFFFFFFFFFFFFEFFFEFF7BFF74E6F2DD37
:1042F000D1DDD1E5CFDDAFDD8ED56FD54FCD2EC56C
:1043000091CDD2D5D2D533EE74F673EE32E611E606
:10431000F1DDD1DDD1D5D0D5AFCD6DC54DBD0FDE31
:1043200090EE51E60BBD68A4889C8DC50FD6CECD0E
:104330004CC5ECB4CCB4ECB44EBD32DEB4F6B5F63C
:10434000D6EE58FFBBFFFEFFFFFFFFFFFFFFFFFFA3
:10435000DFFF9EF71CE7FBE6DBE617CE53B56D9C4F
:1043600010B5F4CDF5E672D62FC60EBE8BB549ADAD
:1043700007A588AD0ABE2BC669B569B5CABD258C2F
:10438000E583ECB433CD35CD33CD71C54FBD8B9CBA
:10439000E88B4994D1C5D6E659F7DDFFFEFF77D605
:1043A000C7620229A118811880188010C110E21874
:1043B000021901190119E1180221022122214229C1
:1043C000622163298341C349245AE67A8893A99BD1
:1043D0008993488B2883E87A8A93AB9BCB9B2CAC40
:1043E0008EB4F0BC11C511C512CD33D574DD37EED6
:1043F000F9F618F7D6F696F696F618FF39FF39FF54
:1044000019FF19FF38FF38FF19FFF8FEB6F695F6C9
:10441000B5F616F757FF98FFBAFF9AFF9AFF79FF94
:1044200017FFB5F634E6D2DDD2DD12E6D4F655F745
:1044300076FF75FF54FF14FF34FF55FF76FF98FF9A
:1044400098FFB8FFB8FFB8FF98FF7AFF7AFF9AFF8E
:104450009AFF9AFF5AFF59FF59FF39FF59FF59FF39
:1044600017FFF6F6F7F639FF7BFF7BFF58F754DEB0
:1044700090C5ABA46A9C6A9CAAA46994488C088CD9
:10448000489CCAB4AFDD2FD5CFCC8FD48FE46FE476
:104490006FDC50DC4FE44FE410DC11DC30E44FEC17
:1044A00050EC51EC52E472E490E471E472E451E4B3
:1044B00052EC52EC52EC73F453F451EC51E451DCF5
:1044C00030CC10CC10CCEFD3CFCBCFCBD1CBD1CB0A
:1044D000D1C3D1C3D2C3D2BBB3BB95BB76BB77BB71
:1044E00079B37AB35BAB7AAB7AB39AB37AAB7AAB84
:1044F0007BB37BB37BB37BB37BB37BB37BB37BB34C
:104500007BB37BB37BAB7BAB7BB37BAB7BAB7BAB63
:10451000127A327A327A327A127A127A337A337A99
:10452000337A337A337A327A327A327A327A337A27
:10453000337A327A5282528253825382537A53822E
:10454000337A53825382538253825382538A538ADB
:1045500033825382538253825382538253825382D3
:104560005382338233823382538253825382738ADB
:10457000738A738A73827382738A738A738A738A63
:10458000738A738A738A738A738A738A738A748A42
:10459000548A738A7382738A72820D51106AFCDDA9
:1045A000BFFF5DEF37BD308B4E722D62CF7214A40A
:1045B000BDEEDFFFFFFFFFFFFFFFFFFFFFFFFFFF7E
:1045C000FFFFFFFFFFFFFFFFFFFFFFFFFFFFFFFFFB
:1045D000FFFFFFFFFFFFFFFFFFFFFFFFFFFFFFFFEB
:1045E000FFFFFFFFFFFFFFFFFFFFFFFFFFFFFFFFDB
:1045F000FFFFFFFFFFFFFFFFFFFFFFFFFFFFFFFFCB
:10460000FFFFFFFFFFFFFFFFFFFFFFFFFFFFFFFFBA
:10461000FFFFFFFFFFFFFEFFFFFFFFFFDFFFFFFFCB
:10462000FFFFFFFFFFFFFFFFFFFFFFFFFFFFFFFF9A
:10463000FFFFFFFFFFFFFFFFFFFFFFFFFFFFFFFF8A
:10464000FFFFFFFFFFFFFFFFFFFFFFFFFFFFFFFF7A
:10465000FFFFFFFFFFFFFFFFDFFF9CFF7CFF9CFFD3
:104660003CFF5DFFDFFFFFFFBEFF5CF7BEFFFFFF0C
:10467000FFFFFFFFFFFFFFFFFFFFFFFFFDFF9AFFB1
:104680009AFFBCFFF9E612A5C539854AA552422911
:104690002131E86AB9DE9DFF9EFFFFFFFFFFFFFFAC
:1046A000FFFFFFFFFFFFFEFF9CFF39FF94EE11DECF
:1046B000D0DDD0DDAFDDAEDDAFD590D570D570CD1E
:1046C00070CD70CD8FD5D1D5F2DD33E653EE52EEFD
:1046D00012E6D1DDD1D5F0D5AECD6DC54CBD50DEE5
:1046E000B1EE2FDECAAC479C489C6CBD30DEB2EE0A
:1046F0000FDE6DCDEBBC0CC5AECD93EEF4FE16FF18
:104700009BFFDDFFFEFFFFFFFFFFFFFFFFFF9DFFA2
:104710003DF739D6AD830B7B309C6F9C8FA450BD89
:1047200074DED5EE94DE51D62FCE0EC68BB569ADB4
:1047300069ADC9B5EABD0AC669B5A9B54CCE08AD23
:10474000268C088C53C5D7E594DD0FC5AAAC2694FA
:10475000E38303848794CEBDB3DEBAF7DBFF96DE36
:10476000CA8BE87A676A4349C138C028A018C110CB
:10477000E110E110021903210321222942294121DC
:1047800021214229A45125628672E67A488B688BE2
:10479000488BEB9BCA93077B6993AA9BAA934DA472
:1047A000AEB4D0BC31C532C5F1C491BC71BCB1BC92
:1047B00094DD56EED6F696F696F6F9FE3AFF5AFFD7
:1047C00019FF19FF39FF39FFF8FEF8FE18FFD7FE71
:1047D000F7FE99FFDAFFDBFFBBFFDAFFDAFFBBFF73
:1047E000BAFF9AFF19F795EE33E6F2E590D5D0DDE2
:1047F00092EE34FF74FF74FF54FF55FF96FF98FF4D
:1048000098FFB8FF98FF98FF78FF79FF59FF58FF8E
:1048100038FF38FF18FFF8FED8FED7F6D7F6F7F6C0
:1048200017FF16FF37FF79FF9BFF9AFFF5DE6DB587
:10483000AA9CAA9CEA9CC99C6894278C088C289402
:10484000A9A44CC511EE93ED32E5D0DC90E470E400
:1048500070E470E470E450E431E451E471EC71EC24
:1048600071EC72E493E493E4B1E491E472E451E412
:1048700051EC51EC52EC72F452EC31DC30D410CCEF
:10488000F0C3CFBBAFC3AFC3AFC3B0C3B2C393BB5F
:1048900094BB95BB96B396B378B379B37AB37BB335
:1048A0007BB37CB37BB37BAB7BAB7BB37CB37BB3A6
:1048B0007BB37BB37BB37CB37BB37BB37BB39BB367
:1048C0009BB37BB39BAB9BAB9BB39BB39AAB7BABD9
:1048D000127A327A327A327A127A127A327A337AD7
:1048E000337A337A327A127A327A327A327A337A85
:1048F000337A327A328253825382537A537A528293
:10490000338253825382538253825382538A538A0F
:10491000338253825382538253825382538253820F
:1049200053823382338A5382538253825382738AEF
:10493000738A738A738A738A738A738A738A738A8F
:10494000738A538A538A738A738A738A738A748ABE
:10495000748A738A52827282928A4E59D06958B48C
:10496000BACD58BD72938D61EB50EA484C517072CC
:10497000D8BCD9C519CE9AD63CEF7DF7DFFFFFFF33
:10498000FFFFFFFFFFFFFFFFFFFFFFFFFFFFFFFF37
:10499000FFFFFFFFFFFFFFFFFFFFFFFFFFFFFFFF27
:1049A000FFFFFFFFFFFFDFFFDFFFDFFFFFFFDFFF97
:1049B000DFFFDFFFFFFFFFFFFFFFFFFFFFFFFFFF47
:1049C000FFFFFFFFFFFFFFFFFFFFFFFFFFFFFFFFF7
:1049D000FFFFFFFFFFFFFEFFFFFFFFFFDFFFFFFF08
:1049E000FFFFFFFFFFFFFFFFFFFFFFFFFFFFFFFFD7
:1049F000FFFFFFFFFFFFFFFFFFFFFFFFFFFFFFFFC7
:104A0000FFFFFFFFFFFFFFFFFFFFFFFFFFFFFFFFB6
:104A1000FFFFFFFFFFFFDFFF9DFF3BFF1BFF5BFF74
:104A2000DAFEDAF65DF7DFFF9DF779E617C638C6DE
:104A3000BADE5DEFBEFFFFFFFFFFFFFFDEFF9AFF65
:104A40009BFF7CEFB4BDCC7B8431854A654A022153
:104A5000665A6E9C3BEF9DFF9DFFFFFFFFFFFFFF30
:104A6000FFFFFFFFFFFFDEFF5AFF17FFB4F632E63E
:104A7000F1DDD0DDAFDDAED5AFD590D591D5B1D5D7
:104A800090D590D58FD5B0D5B2D5F2E512E632E605
:104A9000F2E5F2DDF1DDF0D56DC52CBD8DCDB1E6D1
:104AA000F2EE0FD60AB589A4AAA46DBDEFD571DECA
:104AB00072E631DE90D5D0D532DEF6F636FF58FFFD
:104AC000BCFFDDFFDDFFDEFFBEFF9DF71BEFDAEE73
:104AD00099E634BDE65164416C8B2E9C8EA4B1C521
:104AE000F6EE37F7B4E671D650D60EC6ABB58AAD42
:104AF000A9B5A9B5E9B50ABE89B5CABD8ED68BBD23
:104B00004794267332BDF7E594DDADB4489C048C20
:104B1000027C027C238C2AAD50C657EFF7E6D2C543
:104B2000C9934A9B0A9B2782C56984590231C120D7
:104B3000C118E11803212321232122212121002151
:104B4000E018E12043412562866AC672688B688B53
:104B5000288B4CA44CA42883488B69938A932DA45A
:104B60008EACCFBC31C531C5D0BC70B42FAC2EAC2F
:104B7000D1C493DDB7F6F7FEF8FE1AFF5BFF5AFFCC
:104B80003AFF3AFF3AFF19FFF8FEF8FE18FFD7FE8A
:104B9000F7FE99FFDBFFDBFF9AFFBAFFDBFFDBFFCE
:104BA000FCFFDCFF9BFF39F7F7F695EED2DDD1DD98
:104BB00092EE33FF74FF95FF55FF56FF96FFB7FF48
:104BC000B8FF98FF98FF98FF78FF79FF59FF58FFCB
:104BD00038FF18FFF8FED8FEB7F6B7F696F6B6F629
:104BE00017FF16FF37FF7AFF9AFF38EF32CEEAA49D
:104BF0008894CA9CEAA4C99C2794088C2894489459
:104C0000EAAC8DC532EED4F553EDD1DC70E46FE43F
:104C100070DC70E470E450E451E452E471EC71EC47
:104C200071E492E493E4B3E4B2E492E492E472E4D3
:104C300071E471E472EC72EC72E431D410CCF0CB1C
:104C4000D0C38FBB8EBB8EC38EC38FC392BB94BBAE
:104C500075BB76B378B379B37AB37AAB7BAB7CB3FD
:104C60007CB37CB37BB39BAB9BAB7BAB7CAB7CABB8
:104C70009BB37BB37CB37CB37CB37BB37BB39BB381
:104C80009BB37BB37BB37BB39BB39BB39AAB7BAB45
:104C9000127A327A327A327A127A127A327A337A13
:104CA000337A337A327A127A327A327A337A337AC0
:104CB000337A3282337A537A327A527A527A328221
:104CC000537A5382538253823382337A537A538294
:104CD000538A538253823382538253825382538244
:104CE0005382538A538A538A5382538A738A5382D4
:104CF00053825382738A738A738A538A538A538A7C
:104D0000538A538A538A538A538A538A538A738A9B
:104D1000738A738A7282918292827382327AD169A3
:104D2000AF61AF61AF61D1691272527AF271B1694C
:104D30008F59AD510D520F7BD3ACB6C579D61CE758
:104D40007DF7FFFFFFFFFFFFFFFFFFFFFFFFFFFFFD
:104D5000FFFFFFFFFFFFFFFFFFFFFFFFFFFFFFFF63
:104D6000FFFFFFFFFFFFDFFFDEFFDEFFFEFFFEFFB7
:104D7000FEFFFEFFFFFFFFFFFFFFFFFFFFFFFFFF45
:104D8000FFFFFFFFFFFFFFFFFFFFFFFFFFFFFFFF33
:104D9000FFFFFFFFFFFFFFFFFFFFFFFFFFFFFFFF23
:104DA000FFFFFFFFFFFFFFFFFFFFFFFFFFFFFFFF13
:104DB000FFFFFFFFFFFFFFFFFFFFFFFFFFFFFFFF03
:104DC000FFFFFFFFFFFFFFFFFFFFFFFFFFFFFFFFF3
:104DD000FFFFDFFFBEFF7DFF3CFFDAF6FAF63BFF89
:104DE000B8F677EE98E69DF77CF793C54B6BEB62D0
:104DF000509CD6CD79DEFBDEBEF7FFFFFEFFBCFF89
:104E0000BCFFFADE2A6BA339A43983396231274A01
:104E100095B53CEFDEFFDEFFDEFFFFFFFFFFFFFF8C
:104E2000FFFFFFFFFFFFDCFF38FFF6F6D5F673EE5E
:104E300032E6D0DD8FD58FD58FD5B0D5B1D5B0D5F1
:104E4000B1DDB1D5AFD5B1D5B1D590D56FCD6FCDE1
:104E5000B0D532E632E6CFCDCAACEAAC4FDE54F77D
:104E600033F70ED64BBD0AB50BB54DBD4DBD2DB5B7
:104E700095DE19EF19EF19EF3AEF5BF739F718F7ED
:104E800018EF18F738F77AFF3AFF97E694C5F5D58B
:104E9000D4CD2D9C433143312C94EFACEEAC4EB5C8
:104EA000D5EE79FF79F7F5EE92DE0EC6ECBDCBB507
:104EB000AAB5C9B5E9B50ABEAAB50CC6EFE6ACBD40
:104EC000C87BE5414FA474D5F1C42A9CE683047CD9
:104ED000437C437C448CC89C8DB572D62EB50A9415
:104EE000C5720582489A4CBB4CBBEBAA487A8549EF
:104EF00043416241233922312221E118E118C120C6
:104F000060184118A228C3512462A572AA9BAA9BCB
:104F1000077B4CAC6DAC488B07830783498B0BA494
:104F20006DACAEAC30C530C5AFBC8EB46EB46FB432
:104F30006FB4F1C457EE7BFFBCFF7CFF9CFF9BFF6F
:104F40005BFF5BFF5AFF19FFF7FEF7FEF8FEB7FEA7
:104F5000B7FE18FF79FF99FF99FF9AFFBBFFBBFFD0
:104F6000BBFFBBFFBCFFDCFFBCFFBBFF99F778F7C3
:104F700056F756FF76FF96FF96FF97FF96FF97FF2F
:104F800097FF98FF78FF78FF78FF58FF38FF38FFCA
:104F900017FFF7F6B7F697F697F697EE76EE96EEDA
:104FA000D7F6D6F617F779F718EF54D6CBB489A40D
:104FB0008AA4AAA4AA9C6994088C6994899C899C57
:104FC0002BB5AECD12E6D4ED53E591CC4FD44FD4F2
:104FD0004FCC2FD42FDC2FDC31DC31DC51E471E4F9
:104FE00091E491DC92DC92DC92DC92DC92DC92DC4B
:104FF000B2DC91DC71D451D451CC10C4AFC38FBB9F
:105000004FB32EB32DB32EB34EB36FB371BB74BB7E
:1050100075BB76BB78B37AB37BB37BAB7BAB7BAB37
:105020007BB37BB37BB37BAB7BAB9BAB7BAB7BAB18
:105030009BB37BB37BB37BB37CB37CB37CAB7CABEC
:105040007CAB7BB37BB37BB37BAB7BAB7BAB7BAB17
:10505000127A327A327A327A127A127A327A337A4F
:10506000337A337A327A127A127A327A337A337A1C
:10507000337A328233825382537A527A5282328224
:10508000537A5382538253825382337A537A5382B0
:10509000538A537A537A3382538253825382538290
:1050A0005382538A538A538A5382538A738A538210
:1050B00053825382738A73827382738A538A538AA8
:1050C0005382538A538A538A538A538A538A738AE0
:1050D000738A738A92829282948A948A948A74825E
:1050E000547A537A548276827582738A9492758A3E
:1050F000537A947A927A6D72CA6AA95A4852EF83A7
:1051000095B57DF7DFFFBEFFBEFFBEFFDEFFDFFF11
:10511000FFFFFFFFFFFFFFFFFFFFFFFFFFFFFFFF9F
:10512000FFFFFFFFFFFFFFFFFFFFFFFFFFFFDFFFAF
:10513000DFFFDFFFDFFFFFFFFFFFFFFFFFFFFFFFDF
:10514000FFFFFFFFFFFFFFFFFFFFFFFFFFFFFFFF6F
:10515000FFFFFFFFFFFFFEFFFEFFFEFFFFFFFFFF62
:10516000FFFFFFFFFFFFFFFFFFFFFFFFFFFFFFFF4F
:10517000FFFFFFFFFFFFFFFFFFFFFFFFFFFFFFFF3F
:10518000FFFFFFFFFFFFFFFFFFFFFFFFFFFFDFFF4F
:10519000DEFF9EFF7DFF7DFF5BFF3AFF3BFF7BFF56
:1051A00019FFF9FE3BF7BDFFBDFF3AF7B8DEB8DEE9
:1051B000DAE6F8D572A4CB5A55ADFBDE7DEFDEFF03
:1051C000BEF717C6E739E2200652E228C54193BD73
:1051D0009CF7FFFFFFFFFFFFFFFFFFFFFFFFFFFF4A
:1051E000FFFFFEFFFEFFDCFF78FF36F7F5F694F6D3
:1051F00053EE12E6F0DDD0DDB1DDB0DDB0DDB0D5CF
:10520000B2DDB2DDB1D5B1D591D591D590D56FD5FF
:105210006FCD6FC56EC50BB587A4E8AC4EDE32F717
:10522000D1EE4ABD679CA58BE472E893CBB4AECDBA
:105230008FCD90CDB1CD91CD91CDB2CD70C52FBDDB
:1052400050BD33DED6EE39F739F7D7EE35DED7EE7F
:1052500055DECB8B022102298883CCA40DADAFC5CE
:1052600039EFDDFFBBF7F5EE92E62FCE2DBE0BBE7C
:10527000CAB50ABE4BC64BC62CC68ED6CFDEE89C3E
:10528000036302292662298B0CA4069403842284DA
:10529000A38CC48CC59428AD49AD29AD2AAD489CDA
:1052A000425AA140C358279269AAABB24EC32DAB54
:1052B000CB92277A45790471045125514559666985
:1052C00046696769887945794371E4710883488341
:1052D000E77AEBA30CA4278307832783688B0B9CB7
:1052E0004CA48DACEFBC0FBD8EB44DAC4DAC8EB4A8
:1052F0004EAC6FBC74DD5CF7DEFF9CFF9CFF9CFF37
:105300009CFF9BFF7AFF3AFF18FFF8FED8F6D7F60E
:10531000D7F6D6FEF7FE17FF38FF58FF59FF7AFF82
:105320009AFF9AFFBBFFBBFFBBFFBBFFBBFFBBFFEF
:10533000DBFFDBFFB9FF97FF97FF97FF96FF97FF14
:10534000B8FF98FF78FF38FFF7FE95F695EE96EEDA
:1053500055E635DE14DE15E615E635E635E635E6C6
:1053600055EED6EED5EE32D60DB58AA469A4CAACF8
:10537000EAACA99C698C288C0894689C899C899CBF
:105380006DBDAFCD91DD32D5D2D450CC0FCC2ED463
:105390002FCC0FD40FD4EFCBCED3CFCBCFCBEFC30B
:1053A0000FCC30CC31CC31CC30CC30CC30C410C46C
:1053B000EFC3CEBB6EB32DABEDAA8BAA2BA22BA253
:1053C0004AA26BA28CA2CFAA13B335B358BB7ABB47
:1053D0007ABB7BB37BB37CB37CAB7CAB9BAB7BB34B
:1053E0007BB37CB35CB37CAB7BAB9BAB9BAB9BAB32
:1053F0009BAB7BAB7BAB7BB37CAB7CB37CB37CB339
:105400007CB37CB37CB37CB37CB37CB37CB35BAB4D
:10541000127A327A327A327A127A127A327A337A8B
:10542000337A337A327A127A127A327A337A337A58
:10543000337A328233825382537A52825282337A5F
:10544000537A5382538233823382537A537A53820C
:10545000538A537A537A33825382538253825382CC
:1054600053823382538253825382538A738A538284
:1054700053825382738A73827382738A538A538AE4
:105480005382538A538A538A538A538A7382738A04
:10549000738A738A73827482748A73829382B48AE1
:1054A000B48A948A73827482948AB492748A54827D
:1054B000947A1483338B0F7B6D7B4C73CB6A309C57
:1054C00095C53CF73CFFFBFED9F6B9F699F6B9F65F
:1054D0003CF77DF79DF7DEFFFFFFFFFFFFFFFFFFBC
:1054E000FFFFFFFFFFFFFFFFFFFFFFFFFFFFFFFFCC
:1054F000FFFFFFFFFFFFDFFFFFFFFFFFFFFFFFFFDC
:10550000FFFFFFFFFFFFFFFFFFFFFFFFFFFFFFFFAB
:10551000FFFFFFFFFFFFDEFFDEFFFEFFFFFFFFFFDE
:10552000FFFFFFFFFFFFFFFFFFFFFFFFFFFFFFFF8B
:10553000FFFFFFFFFFFFFFFFFFFFFFFFFFFFFFFF7B
:10554000FFFFFFFFFFFFFFFFFFFFFFFFFFFFDEFF8C
:10555000DEFFDEFFDEFFBDFF9CFFBBFFBBFF9BFF4F
:1055600039FF19FF9BFF9AFF79FF39FF9BFFDDFF92
:10557000BEFF9DFFF7C5695A284A0B63909C38CE41
:10558000D6BD2A6B4321C118022964410B73DAE6A8
:10559000BDFFBDFFDEFFDFFFFFFFFFFFFEFFFEFFE2
:1055A000FEFFFEFFFDFFDCFF7AF758F716FFB5F6AA
:1055B00094EE54E613E6F2DDD1DDD1DDD1DDB0DDD0
:1055C000B1D5B2D5B1D5B2DD91DDB1DD91D590D5F2
:1055D0006FCD8FCD6EC50AAD879C29ADF1E652FF28
:1055E0008FE6A7A48483647B078C4DC531DED3EEA0
:1055F00052DEF2D5D3D5D2D5B2D5D3DD13DE55DE0A
:1056000019EF59F718F7B6E6B7EED7EED7EED7F69B
:10561000F3D52773E128012926732EB5F3D5B7E614
:105620007CFFDEFF9CFF17EF93DE2EC66CC66CC6B8
:105630002CC68CC6ADC66DC64DBE6EC66ECE478C32
:10564000A35A0139E138A459888B458C6284637C64
:105650008484A58CC89409A54AAD8ABDCBC5C8ACC5
:10566000225A6050215881608260C36066796681E9
:1056700066816689458145798781C899E9A14BBAD8
:10568000CECA51D3D3DB51D3EDBAA992E87A0873CD
:10569000E78227832783E6720783278B688BC9936A
:1056A000EA9B0CA48EB4AEB46EB40DA40DA490B459
:1056B0004FB44FB4F3C41BEFDEFF7BFF7BFF9CFFB7
:1056C000BCFFBCFF9BFF7BFF7BFF7BFF5AFF5AFFAA
:1056D00039FF17FFF6FEF7FE18FF18FF38FF58FFD7
:1056E00078FF99FF99FF9AFF7AFF7AFF9AFF9AFF56
:1056F000BAFFBAFFB9FF78FF57FF77FF96FFB6FFF3
:10570000B7FF98FF78FF58FF37FF17FFB6F6F4DDB5
:10571000F3DD14DED4DD15E615E6F5E5F5E515E671
:1057200035E6F3D570BD6B9CA77BC783A9A4EAAC13
:10573000899C288C698C8A94699427942894AAA4BB
:105740006FC591CD31C5F2CC91C40EBCEEC3EEC392
:10575000CEC3CEC3CECBCECBADC38DBBAEC3CFC33A
:10576000EFC3CFC3AEBB8DBB4DB30CA3CCA26A9A23
:105770002992E891C789878166896791A899C9A10B
:105780002BB2ADBAEEBA31B354B356B359B37BB3FF
:105790007CB37CB35CB35CB35CAB7CAB7CAB7CB309
:1057A0007CB37CB37CB37CAB9BAB9BAB9BAB9BAB2D
:1057B0009BAB7BAB7BAB7BAB7CAB7CAB9BB39BAB4F
:1057C0009BAB7BB39BAB9BAB9BB39CB37BB37BB3E0
:1057D000127A327A327A327A327A327A337A337A87
:1057E000327A337A327A327A327A327A337A337A56
:1057F000337A328253825382537A32823282537A9C
:10580000537A537A5382337A337A337A537A538280
:10581000538A5382537A53825382538A53825382D8
:105820005382538253825382538A738A738A538278
:1058300053825382738A738A7382538A538A538A38
:10584000538A538A538A538A538A538A538274825F
:10585000748A748A7582748273825382537A737ADB
:105860007482948A948A948AB38A928A5382747ACC
:10587000B48A138B7293129C519CEE8BE9724B830A
:1058800050A47AE65DFF5CFFD8F635E6D4DD74D52A
:1058900013BD13BD75D598EE3BF79DFFDEFFFFFFEF
:1058A000FFFFFFFFFFFFFFFFFFFFFFFFFFFFFFFF08
:1058B000FFFFFFFFDFFFDFFFFFFFFFFFFFFFFFFF38
:1058C000FFFFFFFFFFFFFFFFFFFFFFFFFFFFFFFFE8
:1058D000FFFFDFFFDEFFDEFFDEFFDEFFDEFFDFFFBD
:1058E000FFFFFFFFFFFFFFFFFFFFFFFFFFFFFFFFC8
:1058F000FFFFFFFFFFFFFFFFFFFFFFFFFFFFFFFFB8
:10590000FFFFFFFFFFFFFFFFFFFFFFFFDFFFDFFFE7
:10591000DFFFFEFFDEFFDDFFBCFFDCFFDCFFBBFFC8
:105920007AFF7AFF9BFF19FFF9F61AF75AF73AF751
:105930003AFFBCFFBCF7FBE6BADEB6BD2B7389525B
:105940006852064A63312229C64154AD1BE7BEFFA7
:10595000DFFFBEFF9DFFDEFFFFFFFEFFFEFFFEFF3E
:10596000FDFFFDFFFDFFDBFF9AFF59FF17FFD6FE8E
:10597000B5F695EE54EE13E6F2DDD1DDD1DDD1DDE5
:10598000B2DDB2DDB1D5B2DD92DDB1D5B1DD90D5FC
:1059900070CD90CD6EC5CAACE8A48ABDAFE6F0EE7E
:1059A0006FDE6BBD6BBD8DCDEFD531DE31DE32DE0E
:1059B00094E6B5EE75EE76EE76EE96EE39F77AFF72
:1059C000BAFFBAFF79FF18F7B7EED7EE38F795E6CA
:1059D0002FB52452E0206131A88333DE59F7BBFF95
:1059E000FEFFFFFFDEFF39F7B5E62ECE2CC64CC614
:1059F0006DC6ADCEAECE8DC60DB62EBE0DBEA67397
:105A0000424AA141A45187724AA4859C828C848415
:105A1000A58CA68CA794A89409A5CABD0ACE28ADCA
:105A2000635AA14841488150A258A3586258426025
:105A300042606260A358C360C470C480C488069981
:105A400089B10CC212DBB4EBF3E310CCAC93497B0D
:105A50008572E3590362A572E67A0683688BCA9B56
:105A60000BA46DACAEB4AFB48EB4EDA3EDA370B423
:105A70004FB44FB4F2C41AEFBCFF19FF3AFF5BFFFB
:105A80007CFF9BFF9BFF9CFFBCFFDCFFBCFFBBFFC1
:105A9000BBFF9AFF58FF17FFF7FEF7FEF8FE18FF4F
:105AA00037FF57FF78FF78FF79FF59FF79FF59FFDC
:105AB00038FF38FF38FF58FF37FF56FF96FFB7FF14
:105AC000B7FF97FF98FF98FF79FF9AFF7AFFF8F6E4
